:020000040000FA
:100000000C9463000C948B000C948B000C948B006C
:100010000C948B000C948B000C948B000C948B0034
:100020000C948B000C948B000C948B000C9402109D
:100030000C948B000C948B000C948B000C948B0014
:100040000C94990E0C948B000C94670E0C94410E3A
:100050000C948B000C948B000C948B000C948B00F4
:100060000C94E30E0C948B00000000002500280087
:100070002B000000000023002600290000000008DB
:10008000000201000003040700000000000000005F
:1000900000000000240027002A00010204081020AC
:1000A000408001020408102001020408102004040A
:1000B0000404040404040202020202020303030310
:1000C0000303BE10121711241FBECFEFD8E0DEBF0E
:1000D000CDBF12E0A0E0B1E0EAEFF8E302C0059086
:1000E0000D92A83BB107D9F725E0A8EBB2E001C01B
:1000F0001D92A230B207E1F710E0C2E6D0E004C0E2
:100100002197FE010E94671AC136D107C9F70E94E4
:10011000D7110C94701C0C9400008CBD9DBD0895EB
:10012000CF92DF92EF92FF92DC01A03282E0B8071B
:10013000D4F5A53BB10514F0A4EBB0E04091EF0479
:1001400028E830E0241B310947FD3395220F331F87
:10015000220F331F6901330FEE08FF084091F004AE
:1001600028E532E0241B310947FD3395220F331F68
:10017000220F331F032E000C440B550B2C193D0985
:100180004E095F09B7FF02C0B0E0A0E00E94D61898
:1001900024EB30E040E050E00E94AC18C20ED31EC9
:1001A000E41EF51ED601E091EE04EC3080F52091BE
:1001B000EF0488E890E0821B910927FD9395880F52
:1001C000991F880F991FA817B90784F02091F00490
:1001D00088E592E0821B910927FD9395880F991F6E
:1001E000880F991FA817B9070CF4CD010297880F43
:1001F000991F4FB7F8942E2F30E0F901EE0FFF1F33
:10020000E20FF31FE756FC4F928381834FBFFF90AD
:10021000EF90DF90CF900895089508950895AF92DC
:10022000BF92CF92DF92EF92FF920F931F93CF93E3
:10023000DF936C017B018B01040F151FEB015E0145
:10024000AE18BF08C017D10759F06991D601ED91DA
:10025000FC910190F081E02DC6010995892B79F779
:10026000C501DF91CF911F910F91FF90EF90DF902B
:10027000CF90BF90AF900895FC01538D448D252FF2
:1002800030E0842F90E0821B930B541710F0CF9630
:10029000089501970895FC01918D828D981761F062
:1002A000A28DAE0FBF2FB11D5D968C91928D9F5F79
:1002B0009F73928F90E008958FEF9FEF0895FC0158
:1002C000918D828D981731F0828DE80FF11D858D0B
:1002D00090E008958FEF9FEF0895FC01918D228D9E
:1002E000892F90E0805C9F4F821B91098F73992723
:1002F00008958EEB93E00E946D0121E0892B09F4B3
:1003000020E0822F089580E090E0892B29F00E9460
:10031000790181110C9400000895FC01A48DA80FAF
:10032000B92FB11DA35ABF4F2C91848D90E0019637
:100330008F739927848FA689B7892C93A089B18957
:100340008C91837080648C93938D848D981306C0F8
:100350000288F389E02D80818F7D80830895EF925C
:10036000FF920F931F93CF93DF93EC0181E0888F6F
:100370009B8D8C8D98131AC0E889F989808185FF3F
:1003800015C09FB7F894EE89FF896083E889F989E1
:1003900080818370806480839FBF81E090E0DF91E3
:1003A000CF911F910F91FF90EF900895F62E0B8D36
:1003B00010E00F5F1F4F0F731127E02E8C8D8E11F1
:1003C0000CC00FB607FCFACFE889F989808185FF58
:1003D000F5CFCE010E948D01F1CFEB8DEC0FFD2FFB
:1003E000F11DE35AFF4FF0829FB7F8940B8FEA8913
:1003F000FB8980818062CFCFCF93DF93EC01888D22
:100400008823B9F0AA89BB89E889F9898C9185FD8F
:1004100003C0808186FD0DC00FB607FCF7CF8C911D
:1004200085FFF2CF808185FFEDCFCE010E948D0147
:10043000E9CFDF91CF910895833081F028F48130A6
:1004400099F08230A9F008958730A9F08830C9F07A
:100450008430B1F4809180008F7D03C08091800052
:100460008F7780938000089584B58F7784BD089539
:1004700084B58F7DFBCF8091B0008F778093B000E3
:1004800008958091B0008F7DF9CFCF93DF93282F0F
:1004900030E0F901E458FF4F8491F901E656FF4F2F
:1004A000D491F901E255FF4FC491CC23A1F0811101
:1004B0000E941C02EC2FF0E0EE0FFF1FEE58FF4FE2
:1004C000A591B491EC91ED2381E090E009F480E0F6
:1004D000DF91CF91089580E090E0FACF1F93CF9302
:1004E000DF93282F30E0F901E458FF4F8491F901A0
:1004F000E656FF4FD491F901E255FF4FC491CC234A
:10050000A9F0162F81110E941C02EC2FF0E0EE0FD3
:10051000FF1FE859FF4FA591B4918FB7F894EC9164
:10052000111108C0D095DE23DC938FBFDF91CF91EE
:100530001F910895DE2BF8CFCF93DF9390E0FC015D
:10054000E656FF4F249182559F4FFC0184918823EA
:10055000D1F090E0880F991FFC01E057FF4FA59163
:10056000B491FC01E859FF4FC591D49161110EC0BF
:100570009FB7F8948C91E22FE0958E238C9328817D
:10058000E223E8839FBFDF91CF9108958FB7F8945E
:10059000EC91E22BEC938FBFF6CFCF939091EE04CA
:1005A0009C3008F052C0C82F61E00E949C028091EC
:1005B000EE04282F30E0F901EE0FFF1FE20FF31FCA
:1005C000E756FC4FCF739081907CC92BC08310926B
:1005D000EF041092F0042CE0622F0E945B1A829FBD
:1005E000B001112430E020E0AB01420F531FFA01AB
:1005F000EE0FFF1FE40FF51FE756FC4F908196FDAD
:1006000016C02F5F3F4F2C30310571F781110FC09D
:100610001092800082E080938100109285001092F9
:100620008400B19A80916F00826080936F00E091A6
:10063000EE048E2F90E0FC01EE0FFF1FE80FF91F74
:10064000E756FC4F8081806480838091EE04CF91D7
:1006500008958E3008F08E508770806480937C00FF
:1006600080917A00806480937A0080917A0086FD80
:10067000FCCF809178009091790008953FB7F8946D
:100680008091700390917103A0917203B0917303F4
:1006900026B5A89B05C02F3F19F00196A11DB11DDD
:1006A0003FBFBA2FA92F982F8827BC01CD01620F19
:1006B000711D811D911D42E0660F771F881F991FD4
:1006C0004A95D1F708958F929F92AF92BF92CF92A1
:1006D000DF92EF92FF924B015C010E943E036B019F
:1006E0007C010E943E036C197D098E099F09683EBA
:1006F000734081059105A8F321E0821A9108A108B1
:10070000B10888EEC80E83E0D81EE11CF11C8114EC
:100710009104A104B10429F7FF90EF90DF90CF90EE
:10072000BF90AF909F908F9008952FB7F8946091ED
:100730006C0370916D0380916E0390916F032FBFD6
:1007400008950F931F9380915B040E9429039C01DD
:1007500091E0253131050CF490E09093790480917B
:100760007A04891751F090937A0481E0253131059C
:100770000CF482E01F910F91089580E0253131053E
:10078000CCF30E94950360936D0470936E04809384
:100790006F049093700480915B040E942903459735
:1007A000ECF00E94950300916D0410916E0420916D
:1007B0006F0430917004601B710B820B930B0091DE
:1007C000710410917204209173043091740406171F
:1007D000170728073907F8F683E0CCCF10927A0480
:1007E000C8CF2F923F924F925F926F927F928F92DB
:1007F0009F92AF92BF92CF92DF92EF92FF920F93B0
:100800001F93CF93DF93CDB7DEB760970FB6F89401
:10081000DEBF0FBECDBF8091840490918504A0916E
:100820008604B0918704892B8A2B8B2B81F48091CD
:10083000800490918104A0918204B09183048093FC
:10084000840490938504A0938604B09387048091D8
:100850005B040E9429038C0121E0298345970CF455
:10086000198280915B040E9429031C010E94950358
:100870006B017C01A9816A2F70E090E080E00E940A
:100880008F172091920430919304409194045091D9
:1008900095040E9488178823B9F0C0928C04D092E6
:1008A0008D04E0928E04F0928F04B9816B2F70E07A
:1008B00090E080E00E948D176093920470939304FF
:1008C000809394049093950480918C0490918D046E
:1008D000A0918E04B0918F04C81AD90AEA0AFB0AC3
:1008E0008091880490918904A0918A04B0918B042E
:1008F0008C159D05AE05BF0508F0D6C00531110564
:100900000CF4D2C0209166042150288B009167041A
:1009100001506091840470918504809186049091C7
:1009200087040E948F176B017C012091690430912C
:100930006A0440916B0450916C040E94EE174B01C5
:100940005C0160917C0470917D0480917E049091A3
:100950007F040E948F176B837C838D839E836091BD
:1009600080047091810480918204909183040E949C
:100970008F176F83788789879A8780915E0490911B
:100980005F04A0916004B09161048B879C87AD8760
:10099000BE87102F1F86A1E0B4E0BA83A983B8896F
:1009A0006B2F70E090E080E00E948D172B813C81DE
:1009B0004D815E810E94EE17A70196010E944719A2
:1009C0002B013C01612F70E090E080E00E948D17C8
:1009D0002F81388549855A850E94EE179B01AC010D
:1009E000C301B2010E9447199B01AC01C501B401CA
:1009F0000E94B3192B853C854D855E850E94EE17BC
:100A00000E94251A9B01AB014219530957FF03C0ED
:100A10005195419551092216330609F5E091640478
:100A2000F09165042F85E21BF109878560960FB66A
:100A3000F894DEBF0FBECDBFDF91CF911F910F9114
:100A4000FF90EF90DF90CF90BF90AF909F908F90EE
:100A50007F906F905F904F903F902F900895898185
:100A60009A81481759074CF0E0916404F0916504AD
:100A70009F85E91BF1098089D9CFAF85AF3031F46B
:100A8000E0916404F09165048081D0CF11110AC017
:100A9000B889B150B88B102F2F852F5F2F875A83BD
:100AA00049837DCF1150F8CF80E0C0CF2091210342
:100AB000260F3327331F21323105ECF420914503F3
:100AC000FC0190E080E0243069F082E00895A0917C
:100AD00021032191AC014F5F5C4FA40FB52FB11DD5
:100AE0002C930196861798F380912103680F6093E9
:100AF000210380E0089581E008951092450381E08C
:100B0000809347031092460361E082E10E946E02E7
:100B100061E083E10E946E02E9EBF0E080818E7F6C
:100B2000808380818D7F808388E48093B80085E412
:100B30008093BC000895CF93DF9391E090930003DE
:100B40008823B9F0C091B800D091BA008091BC0060
:100B50008A7B8093BC0060E082E10E946E0260E0CC
:100B600083E10E946E020E947D05D093BA00C0937B
:100B7000B800DF91CF9108950895E0917B038091B3
:100B80007A03E81730F4F0E0E552FD4F808190E001
:100B900008958FEF9FEF089590917B0380917A03E2
:100BA0002FEF3FEF981748F4E92FF0E0E552FD4FA3
:100BB000208130E09F5F90937B03C901089580916D
:100BC0007A0390917B03891B990B0895CF92DF9252
:100BD000EF92FF920F931F93CF93DF937C01CB0192
:100BE0008A012091DA02222389F0EB016B01C40E05
:100BF000D51ECC15DD0569F06991D701ED91FC9109
:100C00000190F081E02DC7010995F3CF642F0E9478
:100C10005605C801DF91CF911F910F91FF90EF9082
:100C2000DF90CF900895CF93DF931F92CDB7DEB7BB
:100C300069832091DA022223F9F02091780320328F
:100C400058F021E030E0FC013383228390E080E023
:100C50000F90DF91CF91089580917903E82FF0E014
:100C6000E654FD4F998190838F5F80937903809341
:100C7000780381E090E0ECCF61E0CE0101960E9424
:100C80005605F7CFCF92DF92EF92FF920F931F930B
:100C9000CF93DF93FC01C48121E02093DA02C0935B
:100CA000B90210927903109278038485682B8DE83D
:100CB00093E00E941306D0917803D13208F092C0DD
:100CC0000E943E036B017C0180914503811165C048
:100CD00082E08093450381E0809347038FEF809308
:100CE000440310926903D0936803AAEBB2E0E8E4EE
:100CF000F3E080E0D81385C010926A0380916A0304
:100D0000CC0FC82BC0936A0380914603813009F051
:100D10007CC0109246030E943E036B017C018091CF
:100D20006A038093BB008091FC029091FD02A09128
:100D3000FE02B091FF02892B8A2B8B2B99F00E9427
:100D40003E030091FC021091FD022091FE023091C1
:100D5000FF026C197D098E099F09061717072807DE
:100D60003907E0F18091BC0083FDD9CF85EC8093F9
:100D7000BC000E943E036B017C01809145038230E0
:100D800009F445C0809144038F3F61F18091440391
:100D9000803241F18091440325C08091FC02909102
:100DA000FD02A091FE02B091FF02892B8A2B8B2BB2
:100DB00009F48ACF0E943E030091FC021091FD02CB
:100DC0002091FE023091FF026C197D098E099F0966
:100DD000061717072807390708F076CF8091FB021E
:100DE0000E949B0510927903109278031092DA0208
:100DF000DF91CF911F910F91FF90EF90DF90CF90F7
:100E000008959D9191938F5F75CF85EEB0CF8091BE
:100E1000FC029091FD02A091FE02B091FF02892B8D
:100E20008A2B8B2B09F4A9CF0E943E030091FC0270
:100E30001091FD022091FE023091FF026C197D0994
:100E40008E099F09061717072807390708F095CF5D
:100E5000C5CF90E080E00895BC016E5F7F4FDC015C
:100E6000ED91FC910190F081E02D40E0099591E039
:100E7000811190E0892F089508958EBD00000DB472
:100E800007FEFDCF8EB50895DF92EF92FF920F938C
:100E90001F93CF93DF937C01062FD42E152F80E56F
:100EA00090E00E948D0060E0F70186850E946E024E
:100EB00082E10E943D07CD2DD12F0C0F1D2F111D5A
:100EC000C017D10721F089910E943D07F9CF61E059
:100ED000F7018685DF91CF911F910F91FF90EF90E1
:100EE000DF900C946E021F93CF93DF93EC01162FCB
:100EF00080E590E00E948D0060E08E850E946E0289
:100F0000812F80680E943D0780E00E943D07182FD6
:100F100061E08E850E946E02812FDF91CF911F913B
:100F200008950F931F93CF93DF93EC01062F142F97
:100F300080E590E00E948D0060E08E850E946E0248
:100F4000802F0E943D07812F0E943D0761E08E8522
:100F5000DF91CF911F910F910C946E02CF92DF928F
:100F6000EF92FF920F931F93CF93DF93EC016B01EE
:100F7000F42E890140E062E00E94910744E06AE0BB
:100F8000CE010E94910740E864E1CE010E949107E2
:100F9000A6016F2DCE010E94440743E062E0CE011E
:100FA0000E9491070E9495036B017C0129E5C20E06
:100FB000D11CE11CF11C6AE0CE010E94730782FF84
:100FC0001BC040E062E0CE010E94910764E4CE01C4
:100FD0000E947307F801808362E4CE010E947307C8
:100FE000F801818380E0DF91CF911F910F91FF90F5
:100FF000EF90DF90CF9008950E9495036C157D05CA
:101000008E059F05C0F283E0EECF2F923F924F9264
:101010005F926F927F928F929F92AF92CF92DF9268
:10102000EF92FF920F931F93CF93DF9300D0CDB732
:10103000DEB74C012B01D42E390180E0E114F1041C
:1010400011F0F70180813C2C329490EF3922380E58
:1010500040E062E0C4010E9491074FE768E0C401EC
:101060000E94910740E864E1C4010E949107A20137
:101070006D2DC4010E944407432D6AE1C4010E9402
:1010800091074CE062E0C4010E9491076AE1C4014B
:101090000E947307482F40686AE1C4010E949107CB
:1010A0000E9495031B012C01F4E22F0E311C411C00
:1010B000511C68E0C4010E947307982F907309F0D7
:1010C000B7C080FF15C083E00F900F90DF91CF91E4
:1010D0001F910F91FF90EF90DF90CF90AF909F9076
:1010E0008F907F906F905F904F903F902F900895DA
:1010F0000E9495036215730584059505D0F2E3CF30
:101100006114710409F469C00115110509F465C081
:1011100064E1C4010E947307382EF80180818315B1
:1011200008F480C030823320E1F180E590E00E9435
:101130008D0060E0F40186850E946E023A9482E997
:101140000E943D07CC20B1F08FEF90E09C0102C0DF
:10115000220F331FCA94E2F7690182E90E943D071A
:101160009C2D9095F301208192238C21982B9083C4
:10117000CC24C39423014C0C511CC31440F482E9C9
:101180000E943D07F20181932F01C394F6CF80E0C6
:101190000E943D07F201808361E0F40186850E9490
:1011A0006E0268E1C4010E9473078770E114F104C4
:1011B00011F0F701808323FC37C061147104B1F191
:1011C0000115110599F1AA2089F1F80140814130FA
:1011D00031F4843029F58FEF77CF80E0ECCF4230C7
:1011E000F8F081111DC042509E012F5F3F4FB301A7
:1011F000C4010E94AE07811167CFF8019081690E8A
:10120000711CF301329720819981291309C0F1E003
:101210006F1A7108F30120819A81291709F454CFBC
:1012200087E052CF84E050CF82E04ECF80E04CCFB9
:101230006CE0C4010E947307282E837109F460CF0B
:1012400081E042CF8F929F92AF92CF92EF92FF9226
:101250000F931F93CF93DF9300D000D01F92CDB791
:10126000DEB74C0182E08D8340E064E2C4010E945D
:10127000910740E066E2C4010E94910746E268E4FB
:10128000C4010E94910786E28B838D818230D8F160
:101290006CE1C4010E947307482F4F776CE1C401D1
:1012A0000E94910787E08C83A12CC12CCE0104966B
:1012B0007C018E010B5F1F4F9E012F5F3F4F41E06E
:1012C000BE016D5F7F4FC4010E940508982F8111F8
:1012D00017C08D818230B9F48C81811114C081E0F6
:1012E0000F900F900F900F900F90DF91CF911F9163
:1012F0000F91FF90EF90CF90AF909F908F900895B7
:1013000081E0923069F380E0EBCF2F923F924F92D1
:101310005F926F927F928F929F92AF92BF92CF9285
:10132000DF92EF92FF920F931F93CF93DF93CDB78E
:10133000DEB72D970FB6F894DEBF0FBECDBF16E017
:10134000413508F04AC1342E3B014C016CE10E944A
:101350007307482F4F776CE1C4010E94910783E91E
:101360008983332029F081E0F3019081953008F4DE
:1013700080E022242394B12C9B2D990F990F990F73
:10138000D32CD91AD7FCD12C32E0882319F098E855
:101390009B8333E021E09D2D977009F420E09D2D83
:1013A000959595959595290FC9F094E0811193E055
:1013B000291708F4922FEB2DF0E03196E60DF71D7A
:1013C000232F4191A1E0B0E0AC0FBD1FA20FB11DD2
:1013D0004C932F5F422F431B491798F3882311F03A
:1013E000F8E0DF0E8FE18D150CF082C090E79A8354
:1013F0008B819C8189279D8189279E8189278F8365
:101400009E01285F3F4F47E0BE016F5F7F4FC401E1
:101410000E94AE07182F8111E0C01A86E3E0EB8727
:10142000DC86CE0107962C0199E09D87CA844C2D5D
:101430004295407F4C0D6AE1C4010E949107A12CA6
:10144000CE010A967C018E01055F1F4F92014D85EA
:10145000BE016F5F7F4FC4010E940508182F8230C4
:1014600009F065C06CE1C4010E94730785FDB5C039
:101470008F7109F480E2282F30E04D2DDD0C550BE3
:10148000421753070CF09DC0D82EE82FE595E5953F
:10149000E595EF5F982F977081E009F480E0E80F01
:1014A00081E090E08C0F9D1F8E0F911DFC0121505B
:1014B00031092770332781E090E002C0880F991F1F
:1014C0002A95E2F79C018081822B80838BCF85E96E
:1014D0008983332031F081E0F3019081983008F066
:1014E0004BCF80E049CF87E9898326E0B22EF9CF40
:1014F0009D2D97709A878D2D8595859585958E5F05
:10150000282F2295207F290F2A8321E0911101C0E5
:1015100020E0280F2D8744244394512C4C0E5D1E4F
:10152000480E511CE9E0E81BEB87DC867FCF811178
:1015300054C080E2D82E9C8590320CF457CF8B811A
:10154000883809F040C083E093E0EB2DF0E031965D
:10155000E60DF71D980FA1E0B0E0AC0FBD1FA80F7E
:10156000B11D2C9121938F5F8913F5CFBB84E3E0EC
:10157000BE124DC08A8581114AC09E012D5F3F4F2A
:1015800041E0B201C4010E94AE07182F811125C0AD
:101590009B81F201818198133CC09C8182819813C8
:1015A00038C0808182FF12C02394F2E02F1609F424
:1015B0008ECF83E0281609F496CF91E0291609F41E
:1015C000CECE15E00AC082E094E0BFCFF30183875E
:1015D000822D880F820D8F5F8083812F2D960FB60D
:1015E000F894DEBF0FBECDBFDF91CF911F910F9159
:1015F000FF90EF90DF90CF90BF90AF909F908F9033
:101600007F906F905F904F903F902F90089511E0E2
:10161000E4CF17E0E2CF80918403E82FF0E0E258B6
:10162000FC4F882319F081501292FBCF1092840353
:1016300008950F931F93CF938C01C62F0E944206EB
:101640006C2F6460C8010E9442066C2F6B7FC8013A
:101650000E94420683EC90E00197F1F7CF911F9131
:101660000F9108950F931F93CF93DF938C01D62F83
:10167000C42F607F642B0E94190B80E1D89FB001BA
:1016800011246C2BC801DF91CF911F910F910C9405
:10169000190BCF93DF93CDB7DEB728970FB6F89429
:1016A000DEBF0FBECDBF98E0EBE1F1E0DE011196A9
:1016B00001900D929A95E1F79091F904961708F42C
:1016C0006FEF262F30E0220F331F41E050E04C0F28
:1016D0005D1F240F351FF9016081680F606840E0CD
:1016E00081EF94E028960FB6F894DEBF0FBECDBF11
:1016F000DF91CF910C94320B40E061E081EF94E0F8
:101700000E94320B8BE39FE10197F1F78091FA047D
:10171000882321F060E080E00C94490B089541E0BB
:101720000E94320B81E090E008958F929F92AF92D9
:10173000BF920F931F93CF93DF93CDB7DEB7A197DF
:101740000FB6F894DEBF0FBECDBF19A2423008F429
:101750004AE08E010F5D1F4F842E912CB12CA12CDD
:10176000A50194010E941519E62FB901CA01EA30BA
:1017700044F5E05DD801EE938D01232B242B252B1E
:1017800079F790E080E0109769F0FD01019000206A
:10179000E9F73197AF014A1B5B0BBD0181EF94E084
:1017A0000E940F01A1960FB6F894DEBF0FBECDBF09
:1017B000DF91CF911F910F91BF90AF909F908F902D
:1017C0000895E95CD7CFCF92DF92EF92FF926C0140
:1017D000990FEE08FF08F7FE16C041E06DE281EFB9
:1017E00094E00E94320B66277727CB016C197D09A4
:1017F0008E099F094AE00E94950B0196FF90EF9099
:10180000DF90CF9008954AE0C701B601FF90EF90B6
:10181000DF90CF900C94950BFC0101900020E9F72C
:101820003197AF01481B590BBC0181EF94E00C9438
:101830000F0161E086E00E946E0268EC70E080E0DB
:1018400090E00E94630360E086E00E946E0264E61E
:1018500070E080E090E00E9463030E947C0B60E0F7
:1018600080E00E94490B8DE591E00E940C0C61E044
:1018700080E00E94490B8CE691E00E940C0C6CED1C
:1018800075E080E090E00E9463030E947C0B60E0C2
:1018900080E00E94490B8CE791E00E940C0C61E013
:1018A00080E00E94490B8BE891E00C940C0C61E005
:1018B00086E00E946E0268EC70E080E090E00E949A
:1018C000630360E086E00E946E0264E670E080E000
:1018D00090E00E9463030E947C0B60E080E00E9425
:1018E000490B85E991E00E940C0C61E080E00E94C8
:1018F000490B84EA91E00E940C0C6CED75E080E0ED
:1019000090E00E9463030E947C0B60E080E00E94F4
:10191000490B8CE791E00E940C0C61E080E00E9492
:10192000490B8BE891E00C940C0CCF93DF93EC0106
:101930008091DC049091DD040097E9F06881798161
:1019400061157105B1F04091DE045091DF042C81E6
:101950003D814217530768F00E94691C8C819D816C
:101960009093E1048093E0041D821C82DF91CF916B
:1019700008950E94091B888199819093DD048093CA
:10198000DC048A819B819093DF048093DE048C8148
:101990009D819093E1048093E004198218821B8258
:1019A0001A82E2CFCF93DF93EC018881998100976F
:1019B00011F00E94091B198218821D821C821B8251
:1019C0001A82DF91CF910895FC0180819181009767
:1019D00011F00C94091B0895FC0124813581232BFF
:1019E00039F421E0FB018081882349F020E007C021
:1019F000808191810E94601C21E0892BB9F7822FA0
:101A000008950F931F93CF93DF93EC018881998101
:101A1000009759F02A813B812617370730F081E083
:101A2000DF91CF911F910F9108958B016F5F7F4FD1
:101A30000E94921B009759F0998388831B830A8325
:101A40002C813D81232B59F7FC011082E8CF80E0E7
:101A5000E7CFEF92FF920F931F93CF93DF938C0109
:101A60007B01EB0109900020E9F72197C61BD70BFA
:101A7000BE010E94010D811109C0C801DF91CF9103
:101A80001F910F91FF90EF900C94D20CF801D58329
:101A9000C483B70180819181DF91CF911F910F9114
:101AA000FF90EF900C94691CEF92FF920F931F939D
:101AB000CF93DF936115710541F480E0DF91CF9101
:101AC0001F910F91FF90EF90089541155105B1F0CE
:101AD0007B01EC010C811D81040F151FB8010E94D0
:101AE000010D882351F3288139818C819D81B701B3
:101AF000820F931F0E94691C1D830C8381E0DECF3F
:101B0000EF92FF920F931F93CF93DF93EC01198213
:101B100018821B821A821D821C826115710521F1B7
:101B20008B01FB0101900020E9F731977F01E61A54
:101B3000F70AB7010E94010D811109C0CE01DF91A2
:101B4000CF911F910F91FF90EF900C94D20CFD82DA
:101B5000EC82B80188819981DF91CF911F910F911B
:101B6000FF90EF900C94691CDF91CF911F910F9122
:101B7000FF90EF900895AF92BF92CF92DF92EF92D5
:101B8000FF920F931F93CF93DF938C017B015A0138
:101B9000CC24C394D12C452B29F4D12CC12CAA24BC
:101BA000A394B12C64E971E0C8010E94800DD701B3
:101BB0001496CD91DC91CC16DD06E0F4AC16BD0692
:101BC00008F4E501D701ED91FC911197EC0FFD1F91
:101BD000B08010826D917C916C0D7D1DC8016115E6
:101BE0007105A1F00E94290DF70180819181C80F34
:101BF000D91FB882C801DF91CF911F910F91FF903B
:101C0000EF90DF90CF90BF90AF9008950E94D20CDC
:101C1000EBCF85ED8093BC008091FC029091FD029A
:101C2000A091FE02B091FF020796A11DB11D23E015
:101C3000B695A795979587952A95D1F72091BC00E1
:101C400024FD03C01092450308954091FC02509179
:101C5000FD026091FE027091FF02452B462B472B3F
:101C600069F30097A105B10541F02AE22A95F1F741
:101C700000C00197A109B109E1CF8091FB020C944A
:101C80009B051F920F920FB60F9211242F933F9333
:101C90004F935F936F937F938F939F93AF93BF9374
:101CA000EF93FF938EEB93E00E948D01FF91EF91F4
:101CB000BF91AF919F918F917F916F915F914F9164
:101CC0003F912F910F900FBE0F901F9018951F926C
:101CD0000F920FB60F9211242F938F939F93EF9330
:101CE000FF93E091CE03F091CF038081E091D40384
:101CF000F091D50382FD1BC090818091D7038F5F47
:101D00008F732091D803821741F0E091D703F0E060
:101D1000E254FC4F958F8093D703FF91EF919F91F1
:101D20008F912F910F900FBE0F901F90189580816B
:101D3000F4CF1F920F920FB60F9211242F933F935F
:101D40008F939F93AF93BF9380916C0390916D039A
:101D5000A0916E03B0916F0330916B0323E0230FCA
:101D60002D3758F50196A11DB11D20936B0380936B
:101D70006C0390936D03A0936E03B0936F038091F7
:101D8000700390917103A0917203B0917303019657
:101D9000A11DB11D8093700390937103A0937203F2
:101DA000B0937303BF91AF919F918F913F912F910A
:101DB0000F900FBE0F901F90189526E8230F0296E4
:101DC000A11DB11DD2CF1F920F920FB60F921124F9
:101DD0002F933F934F935F936F937F938F939F9333
:101DE000AF93BF93EF93FF938091B900887F8036C4
:101DF00009F44AC0F0F5883209F4A7C018F580311B
:101E000009F49BC0B8F4882309F4F9C0883009F4B8
:101E100094C0FF91EF91BF91AF919F918F917F916E
:101E20006F915F914F913F912F910F900FBE0F9047
:101E30001F901895883109F488C0803251F780933B
:101E4000440314C0803409F49DC040F48033B9F3D6
:101E50008833F9F68093440385ECB0C0803509F4EB
:101E600085C0883509F496C0883499F60E94090E19
:101E7000D0CF883909F48CC038F5883729F050F470
:101E8000883611F0803729F683E08093450310925D
:101E9000430357C0883809F47BC0803919F0803873
:101EA00009F0B7CF80914303803208F071C0E09110
:101EB000430381E08E0F809343038091BB00F0E0E9
:101EC000ED5DFC4F80833DC0803B39F0E0F4803A0B
:101ED00009F479C0883A09F09CCF84E080934503E7
:101EE0001092220310922103E0917603F091770380
:101EF00009958091210381110FC081E08093210316
:101F00001092010309C0803C09F4A6CF883C09F473
:101F1000A3CF883B09F07DCFE091220381E08E0FB3
:101F200080932203F0E0EF5FFC4F80818093BB0041
:101F3000909122038091210329C080916A038093AC
:101F4000BB0085EC8093BC0064CF909169038091C5
:101F50006803981758F5E091690381E08E0F80932C
:101F60006903F0E0E85BFC4F8081E9CFE091690311
:101F700081E08E0F809369038091BB00F0E0E85B05
:101F8000FC4F808390916903809168039817C8F291
:101F900085E8D8CFE091690381E08E0F80936903D3
:101FA0008091BB00F0E0E85BFC4F808380914703A9
:101FB00081115CCF81E08093460384EA8093BC006A
:101FC0001092450326CF85EC8093BC001092450308
:101FD00080914303803230F4E0914303F0E0ED5D03
:101FE000FC4F10826091430370E0E0917403F09124
:101FF000750383E293E00995109243030ACF109290
:10200000440334CF1F920F920FB60F9211242F93D7
:102010003F934F935F936F937F938F939F93AF9370
:10202000BF93CF93DF93EF93FF938091B802C0915A
:10203000BD03D0E087FF24C0109285001092840079
:102040008091B8028F5F8093B8028091B802082E09
:10205000000C990B8C179D0724F48091B8028C30EA
:10206000C4F18091840090918500049680349C494D
:1020700008F47AC08091840090918500049676C01F
:102080008091B802082E000C990B8C179D07C4F69E
:10209000E091B8028E2FEE0F990BFC01EE0FFF1F9F
:1020A000E80FF91FE756FC4F808186FFC9CFE0910A
:1020B000B8028E2FEE0F990BFC01EE0FFF1FE80FF9
:1020C000F91FE756FC4F808160E08F730E946E021B
:1020D000B7CF2091840030918500E091B8028E2F17
:1020E000EE0F990BFC01EE0FFF1FE80FF91FE756EB
:1020F000FC4F81819281820F931F9093890080937E
:102100008800E091B8028E2FEE0F990BFC01EE0FC4
:10211000FF1FE80FF91FE756FC4F808186FF11C0B3
:10212000E091B8028E2FEE0F990BFC01EE0FFF1F0E
:10213000E80FF91FE756FC4F808161E08F730E9422
:102140006E02FF91EF91DF91CF91BF91AF919F917F
:102150008F917F916F915F914F913F912F910F9050
:102160000FBE0F901F90189580E49CE99093890012
:10217000809388008FEF8093B802E3CF1092C10361
:102180001092C00388EE93E0A0E0B0E08093C20319
:102190009093C303A093C403B093C50327E231E037
:1021A0003093BF032093BE0325EC30E03093CB0384
:1021B0002093CA0324EC30E03093CD032093CC036A
:1021C00020EC30E03093CF032093CE0321EC30E0BD
:1021D0003093D1032093D00322EC30E03093D3032B
:1021E0002093D20326EC30E03093D5032093D40320
:1021F0001092D7031092D8031092D9031092DA03E9
:102200001092900310928F03809391039093920306
:10221000A0939303B093940389E391E090938E038A
:1022200080938D031092F4041092F30485E591E0FD
:102230009093F2048093F1041092FA0487E2809361
:10224000F50480E18093FB0482E08093FC0410920B
:10225000FD048091BD038C3008F0A5C091E0980F7B
:102260009093BD038093EE0490E0FC01EE0FFF1FFE
:10227000E80FF91FE756FC4F88EB9BE092838183C0
:1022800064E971E088EE94E00E94800D64E971E0F9
:1022900082EE94E00E94800D64E971E08CED94E0A0
:1022A0000E94800D64E971E086ED94E00E94800D4B
:1022B0008BE491E09093C7048093C6048AE08093F6
:1022C000D40488E08093D5048EE080935B048EEB89
:1022D00093E090935D0480935C048AE999E9ACE40F
:1022E000B3E480935E0490935F04A0936004B09382
:1022F0006104109262041092630485E091E090936F
:1023000065048093640484E080936604809367048A
:102310001092680480E090E0A0EAB0E48093690441
:1023200090936A04A0936B04B0936C0484EF91E0E3
:10233000A0E0B0E08093710490937204A0937304C2
:10234000B09374041092750410927604109277047E
:102350001092780410927A0410927B048CE592E13A
:10236000A0E0B0E080937C0490937D04A0937E0471
:10237000B0937F0488EE93E0A0E0B0E08093800407
:1023800090938104A0938204B093830488EC90E03E
:10239000A0E0B0E08093880490938904A0938A041D
:1023A000B0938B0408958FEF8093EE0469CFCF93A1
:1023B000DF93CDB7DEB765970FB6F894DEBF0FBEDB
:1023C000CDBF789484B5826084BD84B5816084BDBE
:1023D00085B5826085BD85B5816085BD80916E00C3
:1023E000816080936E0010928100809181008260F4
:1023F0008093810080918100816080938100809131
:1024000080008160809380008091B100846080931F
:10241000B1008091B00081608093B00080917A001B
:10242000846080937A0080917A00826080937A0041
:1024300080917A00816080937A0080917A00806830
:1024400080937A001092C10010927B0310927A035D
:1024500010927903109278030E947D058CE091E040
:1024600090937703809376038DE091E090937503CA
:10247000809374031092F6048091FC04823018F06B
:1024800098E09093F6048093F90462E370E080E0B2
:1024900090E00E9463036091FD0481EF94E00E944C
:1024A000420668EE73E080E090E00E94630360E320
:1024B00081EF94E00E94190B0BE416E4C801019728
:1024C000F1F760E381EF94E00E94190BC8010197D6
:1024D000F1F760E381EF94E00E94190B83E592E04D
:1024E0000197F1F760E281EF94E00E94190B60918F
:1024F000F604606240E081EF94E00E94320B84E0D9
:102500008093F70440E06CE081EF94E00E94320B8E
:102510000E947C0B12E01093F80440E066E081EF2B
:1025200094E00E94320B40E062E081EF94E00E9470
:10253000320B8BE39FE10197F1F788E08093FD0474
:1025400060E081EF94E00E944206E091CE03F091BA
:10255000CF031083E091CA03F091CB031082E09186
:10256000CC03F091CD038FEC80831092D603E091E1
:10257000D203F091D30386E08083E091D003F09101
:10258000D103808180618083E091D003F091D103F9
:10259000808188608083E091D003F091D1038081B5
:1025A00080688083E091D003F091D10380818F7D9A
:1025B000808389E090E00E94CD028AE590E00E944D
:1025C000900060E080E10E949C0260E081E10E9456
:1025D0009C0261E086E00E949C0280E090E0A0EA1C
:1025E000B0E48093690490936A04A0936B04B09361
:1025F0006C0460919004709191046115710591F0E3
:1026000090E080E00E948D1720E030E040EA50E446
:102610000E94B31960935E0470935F04809360041A
:10262000909361041FB7F89480917C03811127C0B7
:10263000E8EBF0E08491E4EAF0E09491E82FF0E038
:10264000EE0FFF1FE057FF4FA591B491EC91E923E6
:1026500021F461E08AE00E946E0261E08AE00E945B
:102660009C028CB580618CBD8CB580648CBD61E0B2
:102670008DE00E949C0261E08BE00E949C028091B0
:102680007C038F5F80937C031FBF61E08091D40443
:102690000E949C0261E08091D4040E946E028091AD
:1026A000D5048F3F09F402C160E00E949C02809132
:1026B000D5040E944502892B09F0F8C061E08091A1
:1026C000D5040E949C0260E08091D5040E946E02B5
:1026D00083E090E00197F1F761E08091D5040E94DA
:1026E0006E0262E370E080E090E00E94630340E0ED
:1026F00064E286EC94E00E94910740E066E286EC9A
:1027000094E00E94910746E268E486EC94E00E941F
:10271000910740E864E586EC94E00E94910749EA5D
:1027200066E586EC94E00E94910743E068E586EC5C
:1027300094E00E94910748EE6AE586EC94E00E94DE
:10274000910740E46AE286EC94E00E9491074DE331
:1027500062E286EC94E00E94910768E286EC94E0E5
:102760000E947307982F9370933039F0482F43607D
:1027700068E286EC94E00E94910760E080E00E94AD
:10278000490B87EB91E00E940C0C61E080E00E9415
:10279000490B87EC91E00E940C0C68EB7BE080E039
:1027A00090E00E9463030E947C0B84EBA82EB12C66
:1027B0009AE5892E912CEE24E394F12C30E0C32E7F
:1027C00030E0D32E8091040160E08111E1C00E94CD
:1027D000490B88ED91E00E940C0C0E94A10381300E
:1027E00009F058C00E94F103882309F453C08434CF
:1027F00009F0B7C069EE71E08CED94E00E94EC0C3A
:10280000882309F46EC06DE773E088EE94E00E94BF
:10281000290D8091E8049091E904009709F45DC0C6
:102820000E9422172091020130910301C901860FF5
:10283000971F90930301809302010E947C0B60E03C
:1028400080E00E94490B85EF91E00E940C0C61E052
:1028500080E00E94490B8BE891E00E940C0C61E043
:1028600089E00E94490B80910201909103010E942E
:10287000E30B82E092E00E940C0C68EB7BE080E0CE
:1028800090E00E9463030E940B0B0E947C0B81E08E
:1028900080930401C114D10409F494CF0E947901FA
:1028A000882309F482CF0E9400007FCF4FE062E0CE
:1028B00086EC94E00E94910713E062E370E080E010
:1028C00090E00E94630362E086EC94E00E9473074C
:1028D00084FF0DCF115089F70ACF60E070E0CB0183
:1028E000A1CF66E072E08CED94E00E94EC0C8823AE
:1028F00089F26DE773E082EE94E00E94290D8091E9
:10290000E2049091E304009741F10E942217209184
:10291000000130910101C901860F971F90930101B9
:10292000809300010E947C0B60E080E00E94490BD4
:1029300085EF91E00E940C0C61E080E00E94490B61
:102940008BE891E00E940C0C61E089E00E94490B49
:1029500080910001909101018ACF60E070E0CB018D
:10296000D6CF70908403072D10E003581C4FF80158
:10297000808361E0872D0E94490B41E0F80160816E
:1029800081EF94E00E94320B73947092840382CFA3
:1029900080E00E94490B82E192E00E940C0C80E1F1
:1029A0000E94450290938C0380938B0381E10E94E7
:1029B000450290938A038093890386EC94E00E94F9
:1029C0002209882309F4A8C086EC94E00E942C0711
:1029D000882309F4A1C064E971E0CE0140960E9409
:1029E000800D712C8091C804781608F040C0072D26
:1029F00010E00A531B4FF801838163E971E08031D5
:102A000010F464EB71E0CE0101960E94800D4D81BF
:102A10005E8169817A81CE0140960E94540DCE017B
:102A200001960E94E40CF80183811B861A861D869C
:102A30001C861F861E8640E1BE016F5F7F4F90E0BF
:102A40000E945E17BE016F5F7F4FCE010A960E9403
:102A5000290D4E855F856A857B85CE0140960E9453
:102A6000540DCE010A960E94E40C7394BBCF0889E2
:102A700019890115110571F0F80181918F018823E1
:102A800049F0082E000C990B0E944F1CF801319759
:102A90008083F2CF4C895D89BE01605F7F4FCE019C
:102AA00001960E94BB0D69EE71E0CE0101960E9475
:102AB000EC0C182FCE0101960E94E40C112309F4AE
:102AC000B4C08091020190910301843F91400CF4C5
:102AD0006EC00E94570C0091020110910301045F27
:102AE0001140109303010093020161E089E00E940C
:102AF000490BC8010E94E30B60ED77E080E090E0B5
:102B00000E9463030E947C0BF0928803E09287038B
:102B1000CE0140960E94E40C0E94A103813001F591
:102B20000E94F1038134E1F40E947C0B60E080E0BC
:102B30000E94490B8EE492E00E940C0C61E080E060
:102B40000E94490B8FE592E00E940C0C6CED75E041
:102B500080E090E00E9463030E947C0B10920401CD
:102B600080918B0390918C03892B09F00FC183E036
:102B700090E00E94CD02909286038092850300919E
:102B8000850310918603053B11050CF0D4C0C801E4
:102B90000E94900065E070E080E090E00E94630396
:102BA0000F5F1F4F1093860300938503E8CF4C8976
:102BB0005D89BE01605F7F4FCE0101960E94BB0D13
:102BC000CE0101960E94950CCE0101960E94E40C64
:102BD0000E94190C61E089E00E94490B809102017A
:102BE000909103010E94E30B82E092E00E940C0CA2
:102BF00060ED77E080E090E00E9463030E947C0B30
:102C000060E080E00E94490B80E292E00E940C0CA0
:102C100068EE73E080E090E00E9463030E947C0B0A
:102C2000109288031092870373CF4C895D89BE018F
:102C3000605F7F4FCE0101960E94BB0D66E072E09F
:102C4000CE0101960E94EC0C182FCE0101960E9435
:102C5000E40C112309F44EC0809100019091010110
:102C6000843F91406CF00E94570C0091000110913C
:102C70000101045F1140109301010093000135CF61
:102C80004C895D89BE01605F7F4FCE0101960E9435
:102C9000BB0DCE0101960E94950CCE0101960E94BB
:102CA000E40C0E94190C61E089E00E94490B8091BC
:102CB0000001909101010E94E30B82E092E00E94EA
:102CC0000C0C60ED77E080E090E00E9463030E94CE
:102CD0007C0B60E080E00E94490B80E292E00E9461
:102CE0000C0C0E947C0B68EE73E080E090E00E9488
:102CF000630396CF61E086E00E946E0260E080E0B0
:102D00000E94490B80E392E00E940C0C61E080E09D
:102D10000E94490B80E492E00E940C0C6CED75E07F
:102D200080E090E00E9463030E947C0B60E086E0FC
:102D30000E946E02EDCE0E947C0B60E080E00E945B
:102D4000490B80E792E00E940C0C68EE73E080E093
:102D500090E00E9463030E947C0B60E080E00E9490
:102D6000490B81E892E00E940C0C61E080E00E9437
:102D7000490B82E992E00E940C0C60ED77E080E064
:102D800090E00E9463030E947C0B84CD80918903B4
:102D900090918A03892B09F07DCD809187039091D2
:102DA0008803019709F076CD83E090E00E94CD0280
:102DB000B0928603A092850300918503109186034B
:102DC0000A35110584F0C8010E94900065E070E0AA
:102DD00080E090E00E946303015011091093860384
:102DE00000938503E9CF0E947C0B60E080E00E94A5
:102DF000490B83EA92E00E940C0C61E080E00E94A3
:102E0000490B8FEA92E00E940C0C68EE73E080E0C0
:102E100090E00E9463030E947C0B10928803109242
:102E2000870338CD86ED94E00E94E40C8CED94E0AD
:102E30000E94E40C82EE94E00E94E40C88EE94E0A0
:102E40000C94E40C1F93FC0199278827BC01E8949B
:102E500011911032E9F3193010F01E30C8F31B3213
:102E600051F01D3249F4689406C00E944917610F61
:102E7000711D811D911D119110531A30B0F33EF454
:102E800090958095709561957F4F8F4F9F4F1F91C3
:102E90000895592F482F372F262F660F771F881F29
:102EA000991F660F771F881F991F620F731F841F5A
:102EB000951F660F771F881F991F0895BB27FB0179
:102EC0005527AA27880F991FAA1FA41710F0A41B23
:102ED00083955051B9F7A05DAA3308F0A95DA1937D
:102EE000009779F7B111B1931192CB010C94781737
:102EF000DC01FC01672F71917723E1F7329704C061
:102F00007C916D9370836291AE17BF07C8F30895EB
:102F10000E94CA1708F481E00895E89409C097FB5D
:102F20003EF490958095709561957F4F8F4F9F4FA0
:102F30009923A9F0F92F96E9BB279395F6958795E4
:102F400077956795B795F111F8CFFAF4BB0F11F4A7
:102F500060FF1BC06F5F7F4F8F4F9F4F16C088234E
:102F600011F096E911C0772321F09EE8872F762F84
:102F700005C0662371F096E8862F70E060E02AF0C5
:102F80009A95660F771F881FDAF7880F96958795B1
:102F900097F90895990F0008550FAA0BE0E8FEEF86
:102FA00016161706E807F907C0F012161306E4070D
:102FB000F50798F0621B730B840B950B39F40A2606
:102FC00061F0232B242B252B21F408950A2609F4E4
:102FD000A140A6958FEF811D811D08950E940118C3
:102FE0000C9472180E94641838F00E946B1820F03C
:102FF000952311F00C945B180C94611811240C9417
:10300000A6180E94831870F3959FC1F3950F50E0A6
:10301000551F629FF001729FBB27F00DB11D639F8A
:10302000AA27F00DB11DAA1F649F6627B00DA11D30
:10303000661F829F2227B00DA11D621F739FB00DD6
:10304000A11D621F839FA00D611D221F749F332746
:10305000A00D611D231F849F600D211D822F762FDF
:103060006A2F11249F5750409AF0F1F088234AF0BC
:10307000EE0FFF1FBB1F661F771F881F9150504028
:10308000A9F79E3F510580F00C945B180C94A6188C
:103090005F3FE4F3983ED4F3869577956795B795AF
:1030A000F795E7959F5FC1F7FE2B880F911D9695C9
:1030B000879597F9089597F99F6780E870E060E039
:1030C00008959FEF80EC089500240A9416161706C1
:1030D00018060906089500240A9412161306140609
:1030E00005060895092E0394000C11F4882352F06C
:1030F000BB0F40F4BF2B11F460FF04C06F5F7F4F24
:103100008F4F9F4F089557FD9058440F551F59F00A
:103110005F3F71F04795880F97FB991F61F09F3FC4
:1031200079F087950895121613061406551FF2CFED
:103130004695F1DF08C0161617061806991FF1CF3D
:1031400086957105610508940895E894BB27662764
:103150007727CB0197F90895052E97FB1EF400946D
:103160000E94C31857FD07D00E94151907FC03D011
:103170004EF40C94C31850954095309521953F4FCF
:103180004F4F5F4F089590958095709561957F4F53
:103190008F4F9F4F08950E943719A59F900DB49FA0
:1031A000900DA49F800D911D11240895B7FF0C94DC
:1031B000CB180E94CB18821B930B08952F923F923D
:1031C0004F925F926F927F928F929F92AF92BF9237
:1031D000CF92DF92EF92FF920F931F93CF93DF93E3
:1031E000CDB7DEB7CA1BDB0B0FB6F894DEBF0FBE40
:1031F000CDBF09942A88398848885F846E847D848D
:103200008C849B84AA84B984C884DF80EE80FD808E
:103210000C811B81AA81B981CE0FD11D0FB6F89404
:10322000DEBF0FBECDBFED010895A1E21A2EAA1B8D
:10323000BB1BFD010DC0AA1FBB1FEE1FFF1FA21766
:10324000B307E407F50720F0A21BB30BE40BF50B63
:10325000661F771F881F991F1A9469F760957095EC
:10326000809590959B01AC01BD01CF010895A29F6F
:10327000B001B39FC001A39F700D811D1124911D4A
:10328000B29F700D811D1124911D08955058BB27C8
:10329000AA270E945E190C9472180E94641838F0D4
:1032A0000E946B1820F039F49F3F19F426F40C9417
:1032B00061180EF4E095E7FB0C945B18E92F0E946F
:1032C000831858F3BA17620773078407950720F02D
:1032D00079F4A6F50C94A5180EF4E0950B2EBA2FF0
:1032E000A02D0B01B90190010C01CA01A00111240C
:1032F000FF27591B99F0593F50F4503E68F11A16B8
:10330000F040A22F232F342F4427585FF3CF469548
:1033100037952795A795F0405395C9F77EF41F166A
:10332000BA0B620B730B840BBAF09150A1F0FF0F34
:10333000BB1F661F771F881FC2F70EC0BA0F621F20
:10334000731F841F48F4879577956795B795F79510
:103350009E3F08F0B0CF9395880F08F09927EE0FA5
:103360009795879508950E94C7190C9472180E942A
:103370006B1858F00E94641840F029F45F3F29F060
:103380000C945B1851110C94A6180C9461180E94AF
:10339000831868F39923B1F3552391F3951B550BCB
:1033A000BB27AA2762177307840738F09F5F5F4F18
:1033B000220F331F441FAA1FA9F335D00E2E3AF057
:1033C000E0E832D091505040E695001CCAF72BD06F
:1033D000FE2F29D0660F771F881FBB1F26173707C0
:1033E0004807AB07B0E809F0BB0B802DBF01FF27F2
:1033F00093585F4F3AF09E3F510578F00C945B185C
:103400000C94A6185F3FE4F3983ED4F38695779525
:103410006795B795F7959F5FC9F7880F911D9695AA
:10342000879597F90895E1E0660F771F881FBB1F06
:10343000621773078407BA0720F0621B730B840BB3
:10344000BA0BEE1F88F7E09508950E942C1A689435
:10345000B1110C94A61808950E948B1888F09F57FC
:1034600098F0B92F9927B751B0F0E1F0660F771FA8
:10347000881F991F1AF0BA95C9F714C0B13091F09E
:103480000E94A518B1E008950C94A518672F782F15
:103490008827B85F39F0B93FCCF386957795679563
:1034A000B395D9F73EF490958095709561957F4FCF
:1034B0008F4F9F4F0895991B79E004C0991F96176D
:1034C00008F0961B881F7A95C9F780950895EE0F2E
:1034D000FF1F0590F491E02D09940F931F93CF9354
:1034E000DF938230910510F482E090E0E0910005D6
:1034F000F091010530E020E0B0E0A0E0309799F4D1
:103500002115310509F44AC0281B390B2430310537
:10351000D8F58A819B816115710589F1FB0193833F
:103520008283FE0111C040815181028113814817BD
:103530005907E0F04817590799F4109761F012966F
:103540000C93129713961C933296CF01DF91CF9173
:103550001F910F9108950093000510930105F4CF7A
:103560002115310551F04217530738F0A901DB014D
:103570009A01BD01DF01F801C1CFEF01F9CF9093AE
:10358000010580930005CDCFFE01E20FF31F81936B
:1035900091932250310939832883D7CF2091FE049B
:1035A0003091FF04232B41F4209117013091180131
:1035B0003093FF042093FE042091150130911601F1
:1035C0002115310541F42DB73EB7409119015091B5
:1035D0001A01241B350BE091FE04F091FF04E21761
:1035E000F307A0F42E1B3F0B2817390778F0AC0126
:1035F0004E5F5F4F2417350748F04E0F5F1F509303
:10360000FF044093FE04819391939FCFF0E0E0E0AC
:103610009CCFCF93DF930097E9F0FC0132971382A0
:103620001282A0910005B0910105ED0130E020E08B
:103630001097A1F420813181820F931F2091FE0405
:103640003091FF042817390709F061C0F093FF0497
:10365000E093FE04DF91CF910895EA01CE17DF07D2
:10366000E8F54A815B819E0141155105B1F7E901F9
:10367000FB83EA8349915991C40FD51FEC17FD07CD
:1036800061F4808191810296840F951FE9019983ED
:103690008883828193819B838A83F0E0E0E01296A5
:1036A0008D919C9113970097B9F52D913C911197AD
:1036B000CD010296820F931F2091FE043091FF04EA
:1036C0002817390739F6309751F5109201051092F5
:1036D0000005B093FF04A093FE04BCCFD383C28344
:1036E00040815181840F951FC817D90761F44E5F3F
:1036F0005F4F88819981480F591F518340838A8188
:103700009B81938382832115310509F0B0CFF0931B
:103710000105E09300059ECFFD01DC01C0CF1382BF
:103720001282D7CFB0E0A0E0E8E9FBE10C94E0180A
:103730008C01009751F4CB010E946D1A8C01C801D5
:10374000CDB7DEB7E0E10C94FC18FC01E60FF71FE3
:103750009C0122503109E217F30708F49DC0D901FA
:10376000CD91DC911197C617D70798F0C530D105D8
:1037700030F3CE0104978617970708F3C61BD70BC3
:103780002297C193D1936D937C93CF010E94091B23
:10379000D6CF5B01AC1ABD0A4C018C0E9D1EA091C8
:1037A0000005B0910105512C412CF12CE12C109712
:1037B00031F58091FE049091FF048815990509F078
:1037C0005CC04616570608F058C0809115019091CC
:1037D0001601009741F48DB79EB7409119015091A1
:1037E0001A01841B950BE817F90708F055C0F093F0
:1037F000FF04E093FE04F90171836083A0CF8D91F3
:103800009C91119712966C90129713967C90139737
:10381000A815B90559F56C0142E0C40ED11CCA14B3
:10382000DB0420F1AC014A195B09DA011296159705
:1038300080F06282738251834083D9016D937C93BF
:10384000E114F10471F0D7011396FC93EE931297F3
:1038500076CF22968C0F9D1FF90191838083F3010F
:10386000EFCFF0930105E093000569CF48165906A4
:1038700008F42C017D01D3019ACFCB010E946D1A6F
:103880007C01009749F0AE01B8010E94571CC801A5
:103890000E94091B870153CF10E000E050CF911127
:1038A000089581568A5108F4805285580895FB0185
:1038B000DC0102C001900D9241505040D8F70895AC
:1038C000FB01DC018D91019080190110D9F3990B56
:1038D0000895FB01DC0101900D920020E1F70895AD
:1038E00010E0C2E6D0E004C0FE010E94671A2196F3
:1038F000C336D107C9F7F894FFCF9001D007013143
:1039000032334134353642373839432A3023440084
:103910000002058000000040001400540000000078
:1039200000AF010F013C01FC016D014B015F010083
:103930000000001306E6052907BC05DF05CC05BD20
:103940000500000000850922092C07000000008FF7
:103950000B0F0129070E012020596F75722062613B
:103960006C616E63650020697320696E73756666AD
:103970006963656E7400596F75722052656D616977
:103980006E696E670062616C616E63653A2000204B
:10399000205375636365737366756C6C7900207072
:1039A00061696420796F75722062696C6C002030E7
:1039B00000204175746F6D6174696320746F6C6C65
:1039C00000636F6C656374696F6E207379737465DF
:1039D0006D00456E7465722074686520616D6F7549
:1039E0006E7400323020394220454620324600595C
:1039F0006F75722063757272656E740020546B006F
:103A000046342043322033372042420020202057C2
:103A1000656C636F6D6521212100506C6561736574
:103A200020526563686172676500556E6B6E6F77D3
:103A30006E2056656869636C6500416363657373E6
:103A40002064656E696564005265636861726769C8
:103A50006E67204D6F64652E002E2E2E2E2E2E2E7C
:103A60002E2E2E2E2E2E2E2E2E0056656869636C5D
:103A700065206465746563746564005075742079AD
:103A80006F7572206361726420746F0074686520C2
:103A90007265616465722E2E2E2E2E2E0048617680
:103AA0006520612073616665006A6F75726E657965
:023AB000000014
:107E0000112484B714BE81FFF0D085E080938100F7
:107E100082E08093C00088E18093C10086E0809377
:107E2000C20080E18093C4008EE0C9D0259A86E02C
:107E300020E33CEF91E0309385002093840096BBD3
:107E4000B09BFECF1D9AA8958150A9F7CC24DD24C4
:107E500088248394B5E0AB2EA1E19A2EF3E0BF2EE7
:107E6000A2D0813461F49FD0082FAFD0023811F036
:107E7000013811F484E001C083E08DD089C08234E0
:107E800011F484E103C0853419F485E0A6D080C0E4
:107E9000853579F488D0E82EFF2485D0082F10E0AE
:107EA000102F00270E291F29000F111F8ED06801E7
:107EB0006FC0863521F484E090D080E0DECF843638
:107EC00009F040C070D06FD0082F6DD080E0C81688
:107ED00080E7D80618F4F601B7BEE895C0E0D1E017
:107EE00062D089930C17E1F7F0E0CF16F0E7DF06D8
:107EF00018F0F601B7BEE89568D007B600FCFDCFD4
:107F0000A601A0E0B1E02C9130E011968C91119780
:107F100090E0982F8827822B932B1296FA010C0160
:107F200087BEE89511244E5F5F4FF1E0A038BF0790
:107F300051F7F601A7BEE89507B600FCFDCF97BE46
:107F4000E89526C08437B1F42ED02DD0F82E2BD052
:107F50003CD0F601EF2C8F010F5F1F4F84911BD097
:107F6000EA94F801C1F70894C11CD11CFA94CF0C13
:107F7000D11C0EC0853739F428D08EE10CD085E9AC
:107F80000AD08FE07ACF813511F488E018D01DD067
:107F900080E101D065CF982F8091C00085FFFCCF94
:107FA0009093C60008958091C00087FFFCCF809118
:107FB000C00084FD01C0A8958091C6000895E0E648
:107FC000F0E098E1908380830895EDDF803219F02E
:107FD00088E0F5DFFFCF84E1DECF1F93182FE3DFCA
:107FE0001150E9F7F2DF1F91089580E0E8DFEE27F6
:047FF000FF270994CA
:027FFE00040479
:00000001FF
